S013000074696E793834315F6932632E7372656353
S11300001DC037C036C035C034C033C032C031C063
S113001030C02FC02EC02DC02CC02BC02AC029C078
S113002028C027C026C025C025C023C022C021C0A7
S113003020C01FC01EC01DC01CC041C011241FBE53
S1130040CFEFD2E0DEBFCDBF11E0A0E0B1E0E4E04D
S1130050F2E002C005900D92A030B107D9F721E07B
S1130060A0E0B1E001C01D92A230B207E1F7A6D032
S1130070C7C0C6CF1F920F920FB60F9211248F9351
S1130080EF93FF938091B00080930101809101016F
S113009080938000E6E8F0E0808186FFFDCFE6E80B
S11300A0F0E080818064808381E080930001FF918F
S11300B0EF918F910F900FBE0F901F9018951F9284
S11300C00F920FB60F9211248F93EF93FF938091A9
S11300D0A30086FF0CC08091A30080FF08C0E4EA5F
S11300E0F0E080818B7F8083808183608083809136
S11300F0A3008823E4F4E4EAF0E080818460808350
S11301008091A0008093010180910101809380007F
S1130110E6E8F0E0808186FFFDCFE6E8F0E080814C
S113012080648083E3EAF0E080818068808381E0FA
S113013080930001FF91EF918F910F900FBE0F906C
S11301401F901895E0E7F0E090819F779083E5EAAF
S1130150F0E0908198609083908190629083908188
S113016090619083908191609083880F8093A20026
S11301700895E0E7F0E090819F7D9083A1E8B0E0EE
S113018011961C921E92D39AE4E8F0E09081906C50
S113019090839081987F9083E6E8F0E090819D7F42
S11301A09083E5E8F0E090819860908390819F7E51
S11301B0908390E011969C938E930895BA9AF89444
S11301C080E0D7DF88E0BEDF789480910001882347
S11301D0E1F310920001B29A2FEF81EE94E02150E6
S11301E080409040E1F700C00000B29A2FEF81EE0A
S11301F094E0215080409040E1F700C00000E5CF3A
S1070200F894FFCF9C
S9030000FC
