:100000001DC037C036C035C034C033C032C031C067
:1000100030C02FC02EC02DC02CC02BC02AC029C07C
:1000200028C027C026C025C024C023C023C021C0AB
:1000300020C01FC01EC01DC01CC01BC011241FBE7D
:10004000CFEFD2E0DEBFCDBF11E0A0E0B1E0E4ED44
:10005000F1E002C005900D92A030B107D9F721E080
:10006000A0E0B1E001C01D92A330B207E1F78FD04C
:10007000AFC0C6CF1F920F920FB60F9211248F936D
:10008000EF93FF93E0E8F0E080818093010180919D
:1000900001018083DF98809101018093B000E6E840
:1000A000F0E0808186FFFDCFE1EBF0E080818823E6
:1000B000ECF78091B00080930201E6E8F0E08081E7
:1000C00080648083DF9A81E080930001FF91EF914B
:1000D0008F910F900FBE0F901F901895E0E7F0E002
:1000E00080818F7E8083E2EBF0E080818F7B808354
:1000F00080818F7D808380818061808380818E7FFD
:10010000808380818E7F8083A5E6B0E08C918C9384
:10011000D49AD69AD79A8081806480830895CF93A9
:10012000DF93E0E7F0E090819F7D9083C1E8D0E02D
:1001300019821882E4E8F0E090819F7390839081A7
:1001400090639083908198609083A5E8B0E09C9143
:100150009B7F9C9390819660908390819E7F9083FB
:10016000908194609083E6E8F0E090819D7F908399
:1001700090E0998388838C9180688C938C918860BF
:100180008C938C9180618C93DF91CF910895BA9A72
:10019000F89487E6C4DFA2DF789480910001882379
:1001A000E1F310920001B29A2FEF81EE94E021501A
:1001B00080409040E1F700C00000B29A2FEF81EE3E
:1001C00094E0215080409040E1F700C00000E5CF6E
:0401D000F894FFCFD1
:00000001FF
