:100000001DC037C036C035C034C033C032C031C067
:1000100030C02FC02EC02DC02CC02BC02AC029C07C
:1000200028C027C026C025C078C023C022C021C058
:1000300020C01FC01EC01DC01CC01BC011241FBE7D
:10004000CFEFD2E0DEBFCDBF11E0A0E0B1E0E4E74A
:10005000F1E002C005900D92A430B107D9F721E07C
:10006000A4E0B1E001C01D92A630B207E1F723D0B1
:100070007FC0C6CFE0E7F0E080818F7E8083E2EB37
:10008000F0E080818068808380818F7D80838081A3
:100090008061808380818E7F808380818E7F80835A
:1000A000A5E6B0E08C918C93D79AD69AD49A8081A9
:1000B000806480830895BA9AF894DCDF7894A0E095
:1000C000B1E0E0EBF0E02FEF81EE94E021508040D2
:1000D0009040E1F700C00000DF9811968C911197D5
:1000E0008083DF9A80910401882369F310920401D0
:1000F000B29A2FEF81EE94E0215080409040E1F7DA
:1001000000C00000B29A2FEF81EE94E021508040B1
:100110009040E1F700C00000D6CF1F920F920FB6BB
:100120000F9211242F938F939F938091B00080930F
:100130000501B29A2FEF81EE94E02150804090406B
:10014000E1F700C00000B29A2FEF81EE94E0215059
:1001500080409040E1F700C0000081E080930401FE
:100160009F918F912F910F900FBE0F901F90189518
:04017000F894FFCF31
:0401740015AB04457E
:00000001FF
