S013000074696E793834315F7370692E7372656305
S11300001DC02CC02BC02AC029C028C027C026C0B0
S113001025C024C023C022C021C020C01FC01EC0D0
S11300201DC01CC01BC01AC065C018C017C016C0B4
S113003015C014C013C012C011C010C011241FBEBB
S1130040CFEFD2E0DEBFCDBF21E0A0E0B1E001C040
S11300501D92A030B207E1F722D056C0D1CF7894D8
S1130060E0E7F0E080818F7E8083E2EBF0E0808146
S11300708064808380818068808380818F7D808399
S113008080818F7E808380818E7F808380818E7F3C
S11300908083E5E6F0E080818083D59A0895CF934C
S11300A0DF9300D000D0CDB7DEB785E189838BEA3A
S11300B08A8384E08B8385E48C83D29AD0DF80E0CA
S11300C020E0A0EBB0E0843048F4E1E0F0E0EC0F95
S11300D0FD1FE80FF11D90819C9301C0822F8F5F5B
S11300E03FEF43ED90E3315040409040E1F700C0D2
S11300F00000E9CF1F920F920FB60F9211240F90B8
S10F01000FBE0F901F901895F894FFCFCD
S9030000FC
