S013000074696E793834315F7370692E7372656305
S11300001DC037C036C035C034C033C032C031C063
S113001030C02FC02EC02DC02CC02BC02AC029C078
S113002028C027C026C025C093C023C022C021C039
S113003020C01FC01EC01DC01CC01BC011241FBE79
S1130040CFEFD2E0DEBFCDBF11E0A0E0B1E0EEE93A
S1130050F1E002C005900D92A430B107D9F721E078
S1130060A4E0B1E001C01D92A630B207E1F747D089
S113007094C0C6CFE0E7F0E080818F7E8083E2EB1E
S1130080F0E08081806480838081806880838081C7
S11300908F7D808380818F7E808380818E7F80832B
S11300A080818E7F8083E5E6F0E080818083D7982D
S11300B0D59A0895E0E7F0E090819F7D9083A1E8D0
S11300C0B0E011961C921E92D39AE4E8F0E090817D
S11300D0906C90839081987F9083E6E8F0E0908123
S11300E09D7F9083E5E8F0E0908198609083908113
S11300F09F7E908390E011969C938E930895BA9A74
S1130100F89480E0D7DFB6DF7894A0E0B1E0E0EBCC
S1130110F0E011968C9111978083809104018823DB
S1130120C1F310920401B29A2FEF81EE94E02150B2
S113013080409040E1F700C00000B29A2FEF81EEBA
S113014094E0215080409040E1F700C00000E1CFEE
S11301501F920F920FB60F9211248F93EF93FF9378
S11301608091B00080930501809105018093800007
S1130170E6E8F0E0808186FFFDCFE6E8F0E08081EC
S11301808064808381E080930401FF91EF918F91DB
S11101900F900FBE0F901F901895F894FFCF9C
S107019E15AB044550
S9030000FC
