S01000006D656761333238702E737265636D
S11300000C9434000C943E000C943E000C943E007E
S11300100C943E000C943E000C943E000C943E0064
S11300200C943E000C943E000C943E000C943E0054
S11300300C943E000C943E000C943E000C943E0044
S11300400C943E000C943E000C943E000C943E0034
S11300500C943E000C943E000C943E000C943E0024
S11300600C943E000C943E0011241FBECFEFD8E048
S1130070DEBFCDBF0E9440000C9456000C940000DB
S1130080579A5F9A2FEF81EE94E021508040904080
S1130090E1F700C000005F982FEF81EE94E021505B
S11300A080409040E1F700C00000EBCFF894FFCF10
S9030000FC
