:100000001DC037C036C035C034C033C032C031C067
:1000100030C02FC02EC02DC02CC02BC02AC029C07C
:1000200028C027C026C025C025C023C022C021C0AB
:1000300020C01FC01EC01DC01CC041C011241FBE57
:10004000CFEFD2E0DEBFCDBF11E0A0E0B1E0E2EF44
:10005000F1E002C005900D92A030B107D9F721E080
:10006000A0E0B1E001C01D92A230B207E1F7A6D036
:10007000BEC0C6CF1F920F920FB60F9211248F935E
:10008000EF93FF938091B000809301018091010173
:1000900080938000E6E8F0E0808186FFFDCFE6E80F
:1000A000F0E080818064808381E080930001FF9193
:1000B000EF918F910F900FBE0F901F9018951F9288
:1000C0000F920FB60F9211248F93EF93FF938091AD
:1000D000A30086FF0CC08091A30080FF08C0E4EA63
:1000E000F0E080818B7F808380818360808380913A
:1000F000A3008823E4F4E4EAF0E080818460808354
:100100008091A00080930101809101018093800083
:10011000E6E8F0E0808186FFFDCFE6E8F0E0808150
:1001200080648083E3EAF0E080818068808381E0FE
:1001300080930001FF91EF918F910F900FBE0F9070
:100140001F901895E0E7F0E090819F7B9083E4E9B1
:10015000F0E090819F73908390819F7C9083908149
:10016000977F9083908196609083A5E9B0E09C9101
:100170009B7F9C9390819E7F908390E090939200D0
:10018000809391008C9180688C93E3E9F0E080810A
:10019000806880838C9188608C938C9180618C9333
:1001A000089580939000E6E9F0E0808186FFFDCF1E
:1001B000E6E9F0E08081806480830895BA9AD79A56
:1001C000F89487E6BFDF78948FEFEBDF85E0E9DF17
:1001D00083E0E7DF81E2E5DFCF9A2FEF8DE399E45B
:1001E000215080409040E1F700C00000EDCFF8942E
:0201F000FFCF3F
:00000001FF
