S012000074696E7938355F70776D2E737265632E
S11300000EC015C014C013C012C011C010C00FC060
S11300100EC00DC00CC00BC00AC009C008C011241A
S11300201FBECFE5D2E0DEBFCDBF02D034C0E8CFE3
S1130030BC9A87B5846087BD87B5826087BD87EC2D
S113004090E00197F1F700C0000007B400FEFDCF77
S113005080B7806880BF80B7856080BF80B7857FA8
S113006080BF8CB580648CBD8CB580628CBD8CB532
S11300708F7E8CBD8FE78BBD87EC8DBD90E0892F83
S11300808BBDEFE1FEE43197F1F700C000008F5F14
S10D0090883CB1F7F4CFF894FFCFD9
S9030000FC
