S019000074696E793834315F426C7565546F6F74682E73726563B5
S11300001DC037C036C035C034C033C032C031C063
S113001030C02FC02EC02DC02CC02BC02AC029C078
S113002028C027C026C025C024C023C023C021C0A7
S113003020C01FC01EC01DC01CC01BC011241FBE79
S1130040CFEFD2E0DEBFCDBF11E0A0E0B1E0ECE540
S1130050F1E002C005900D92A030B107D9F721E07C
S1130060A0E0B1E001C01D92A230B207E1F764D074
S113007073C0C6CF1F920F920FB60F9211248F93A5
S1130080EF93FF93E0E8F0E0808180930101809199
S113009001018083E6E8F0E0808186FFFDCFE6E899
S11300A0F0E080818064808381E080930001FF918F
S11300B0EF918F910F900FBE0F901F901895CF93D3
S11300C0DF93E0E7F0E090819F7D9083E5E6F0E048
S11300D0908191609083C1E8D0E019821882E4E8AD
S11300E0F0E090819F7390839081906390839081DE
S11300F098609083A5E8B0E09C919B7F9C9390814D
S11301009660908390819E7F908390819460908389
S1130110E6E8F0E090819D7F908390E09983888366
S11301208C9180688C938C9188608C938C91806185
S11301308C93DF91CF910895D09AF89483E3BFDF35
S113014078942FEF89E698E1215080409040E1F7C0
S10F015000C00000C89AF5CFF894FFCF5F
S9030000FC
