:100000001DC037C036C035C034C033C032C031C067
:1000100030C02FC02EC02DC02CC02BC02AC029C07C
:1000200028C027C026C025C025C023C022C021C0AB
:1000300020C0B5C08FC01DC01CC041C011241FBE50
:10004000CFEFD2E0DEBFCDBF11E0A0E0B1E0ECE940
:10005000F2E002C005900D92A430B107D9F721E07B
:10006000A4E0B1E001C01D92A630B207E1F7F0D0E4
:1000700013C1C6CF1F920F920FB60F9211248F9308
:10008000EF93FF938091B00080930501809105016B
:1000900080938000E6E8F0E0808186FFFDCFE6E80F
:1000A000F0E080818064808381E080930401FF918F
:1000B000EF918F910F900FBE0F901F9018951F9288
:1000C0000F920FB60F9211248F93EF93FF938091AD
:1000D000A30086FF0CC08091A30080FF08C0E4EA63
:1000E000F0E080818B7F808380818360808380913A
:1000F000A300882324F5E4EAF0E080818460808313
:100100008091A0008093050180910501880F880FE0
:1001100080938000E6E8F0E0808186FFFDCFE6E88E
:10012000F0E0808180648083E3EAF0E08081806891
:100130008083D89A85E08A95F1F70000D89881E00D
:1001400080930401FF91EF918F910F900FBE0F905C
:100150001F9018951F920F920FB60F9211248F9334
:10016000EF93FF93809190008093050180910501AA
:1001700080938000E6E8F0E0808186FFFDCFE6E82E
:10018000F0E080818064808381E080930401FF91AE
:10019000EF918F910F900FBE0F901F9018951F92A7
:1001A0000F920FB60F9211248F93EF93FF938091CC
:1001B000960085FF04C08091010180939000E3E9DF
:1001C000F0E0808180648083FF91EF918F910F90A8
:1001D0000FBE0F901F901895E0E7F0E090819F7799
:1001E0009083E5EAF0E0908198609083908190623E
:1001F0009083908190619083908191609083880F2B
:100200008093A2000895E0E7F0E090819F7D9083C5
:10021000A1E8B0E011961C921E92D39AE4E8F0E0B7
:100220009081906C90839081987F9083E6E8F0E0D5
:1002300090819D7F9083E5E8F0E0908198609083C5
:1002400090819F7E908390E011969C938E93089569
:10025000BA9AD09AD898F89480E0D5DF88E0BCDFCD
:100260007894809104018823E1F310920401B29AFA
:100270002FEF81EE94E0215080409040E1F700C0E4
:100280000000B29A2FEF81EE94E021508040904020
:0C029000E1F700C00000E5CFF894FFCFBC
:04029C0015AB044555
:00000001FF
