S013000074696E793834315F4144432E7372656389
S11300001DC02CC02BC02AC029C028C027C026C0B0
S113001025C024C023C022C021C020C01FC01EC0D0
S11300201DC01CC01BC01AC019C018C017C016C000
S113003015C014C013C012C011C010C011241FBEBB
S1130040CFEFD2E0DEBFCDBF21E0A0E0B1E001C040
S11300501D92A230B207E1F743D04FC1D1CFE0E700
S1130060F0E080818E7F808388B18F7188B985B1FB
S1130070876085B9E1E6F0E080818460808319B807
S11300808DE089B92F9A8FE39FE10197F1F700C0C2
S113009000002E9A2C9BFECF86B1E0E0F1E0808335
S11300A087B181832C9A2E9A2C9BFECF86B1E0E0F7
S11300B0F1E0808387B181832C9A618170E0762F8F
S11300C06627808198E099B9682B80E090E087D01A
S11300D09B01AC016DEC7CEC8CE894E418D00895A1
S11300E0BEDFE0E0F1E02FEF89E698E121508040A7
S11300F09040E1F700C000002E9A2C9BFECF86B101
S1130100808387B181832C9A81818081ECCF0CD04C
S1130110BAC0B2D040F0A9D030F021F45F3F19F05A
S11301209BC05111E4C09EC0BFD098F39923C9F37A
S11301305523B1F3951B550BBB27AA2762177307E9
S1130140840738F09F5F5F4F220F331F441FAA1F9D
S1130150A9F333D00E2E3AF0E0E830D0915050405D
S1130160E695001CCAF729D0FE2F27D0660F771F0B
S1130170881FBB1F261737074807AB07B0E809F0ED
S1130180BB0B802DBF01FF2793585F4F2AF09E3F82
S1130190510568F061C0ABC05F3FECF3983EDCF3FF
S11301A0869577956795B795F7959F5FC9F7880FFB
S11301B0911D9695879597F90895E1E0660F771F4D
S11301C0881FBB1F621773078407BA0720F0621BDE
S11301D0730B840BBA0BEE1F88F7E0950895E8942F
S11301E009C097FB3EF490958095709561957F4F7B
S11301F08F4F9F4F9923A9F0F92F96E9BB27939529
S1130200F695879577956795B795F111F8CFFAF438
S1130210BB0F11F460FF1BC06F5F7F4F8F4F9F4F69
S113022016C0882311F096E911C0772321F09EE8C7
S1130230872F762F05C0662371F096E8862F70E02D
S113024060E02AF09A95660F771F881FDAF7880F07
S11302509695879597F9089597F99F6780E870E0D8
S113026060E008959FEF80EC089500240A94161628
S1130270170618060906089500240A941216130690
S1130280140605060895092E0394000C11F488231E
S113029052F0BB0F40F4BF2B11F460FF04C06F5F3A
S11302A07F4F8F4F9F4F089557FD9058440F551F10
S11302B059F05F3F71F04795880F97FB991F61F0E4
S11302C09F3F79F087950895121613061406551F5B
S11302D0F2CF4695F1DF08C0161617061806991FC7
S11302E0F1CF86957105610508940895E894BB27BC
S11102F066277727CB0197F90895F894FFCF7E
S9030000FC
