S019000074696E793834315F426C7565546F6F74682E73726563B5
S11300001DC037C036C035C034C033C032C031C063
S113001030C02FC02EC02DC02CC02BC02AC029C078
S113002028C027C026C025C024C023C03AC021C090
S113003020C01FC01EC01DC01CC01BC011241FBE79
S1130040CFEFD2E0DEBFCDBF11E0A0E0B1E0E2EC43
S1130050F4E002C005900D92A030B107D9F721E079
S1130060A0E0B1E001C01D92AF30B207E1F70FD1BB
S113007026C2C6CF80938000E6E8F0E0808186FF48
S1130080FDCFE6E8F0E0808180648083089580936A
S1130090B000E1EBF0E080818823ECF78091B000C0
S11300A008951F920F920FB60F9211242F933F932E
S11300B04F935F936F937F938F939F93AF93BF936C
S11300C0CF93DF93EF93FF938091800080930D0192
S11300D080910D01CFDFE0910801F0E080910D01E6
S11300E0E75FFE4F8083809108018F5F8093080152
S11300F080910801843089F4DA98C0E0D0E0FE01F0
S1130100E75FFE4F8081C3DF80930E012196C430E8
S1130110D105A9F7DA9A10920801FF91EF91DF91C6
S1130120CF91BF91AF919F918F917F916F915F918B
S11301304F913F912F910F900FBE0F901F901895E4
S1130140E0E7F0E080818F7E8083E2EBF0E0808165
S11301508F7B808380818F7D808380818061808399
S11301608081877F8083808184608083A5E6B0E07E
S11301708C9182608C93D39AD19AD29A8081806434
S113018080830895CF93DF93E0E7F0E090819F7D33
S11301909083E5E6F0E0908191609083C1E8D0E03F
S11301A019821882E4E8F0E090819F739083908133
S11301B090639083908198609083A5E8B0E09C91CF
S11301C09B7F9C9390819660908390819E7F908387
S11301D0908194609083E6E8F0E090819D7F908325
S11301E090E0998388838C9180688C938C9188604B
S11301F08C938C9180618C93DF91CF910895E0E78B
S1130200F0E080818E7F808388B18F7188B985B159
S1130210866085B92898E0E6F0E08081806280837A
S113022019B88DE089B92F9A8FE99FE00197F1F70A
S113023000C000002E9A2C9BFECF86B1E6E0F1E0D0
S1130240808387B181832C9A2E9A2C9BFECF86B112
S1130250E6E0F1E0808387B181832C9A80818093EA
S11302600001818180930101618170E0762F66270E
S1130270808195E099B9682B80E090E092D09B0151
S1130280AC016DEC7CEC8CE894E423D00895F894F4
S113029083E378DF55DFB3DF6093020170930301DA
S11302A080930401909305017894E6E0F1E02FEF48
S11302B080E792E0215080409040E1F700C00000C8
S11302C02E9A2C9BFECF86B1808387B181832C9A92
S11302D0EECF0CD0BAC0B2D040F0A9D030F021F4A7
S11302E05F3F19F09BC05111E4C09EC0BFD098F38A
S11302F09923C9F35523B1F3951B550BBB27AA27A3
S113030062177307840738F09F5F5F4F220F331F14
S1130310441FAA1FA9F333D00E2E3AF0E0E830D0E0
S113032091505040E695001CCAF729D0FE2F27D0E3
S1130330660F771F881FBB1F261737074807AB07B1
S1130340B0E809F0BB0B802DBF01FF2793585F4F26
S11303502AF09E3F510568F061C0ABC05F3FECF3EB
S1130360983EDCF3869577956795B795F7959F5FEB
S1130370C9F7880F911D9695879597F90895E1E03F
S1130380660F771F881FBB1F621773078407BA079E
S113039020F0621B730B840BBA0BEE1F88F7E095F9
S11303A00895E89409C097FB3EF490958095709564
S11303B061957F4F8F4F9F4F9923A9F0F92F96E9AD
S11303C0BB279395F695879577956795B795F11122
S11303D0F8CFFAF4BB0F11F460FF1BC06F5F7F4FBF
S11303E08F4F9F4F16C0882311F096E911C07723D1
S11303F021F09EE8872F762F05C0662371F096E8DA
S1130400862F70E060E02AF09A95660F771F881FA8
S1130410DAF7880F9695879597F9089597F99F6766
S113042080E870E060E008959FEF80EC0895002478
S11304300A941616170618060906089500240A9445
S113044012161306140605060895092E0394000CCB
S113045011F4882352F0BB0F40F4BF2B11F460FF5A
S113046004C06F5F7F4F8F4F9F4F089557FD905883
S1130470440F551F59F05F3F71F04795880F97FB64
S1130480991F61F09F3F79F087950895121613061E
S11304901406551FF2CF4695F1DF08C0161617064D
S11304A01806991FF1CF8695710561050894089582
S11304B0E894BB2766277727CB0197F90895F8942A
S10504C0FFCF68
S9030000FC
