:100000000C9456000C9468000C9468000C946800E2
:100010000C9468000C9468000C9468000C946800C0
:100020000C9468000C9468000C9468000C946800B0
:100030000C9468000C9468000C9468000C946800A0
:100040000C9468000C9468000C9468000C94680090
:100050000C9468000C9468000C9468000C94680080
:100060000C9468000C945E010C9468000C94680079
:100070000C9468000C9468000C9468000C94680060
:100080000C9468000C9468000C9468000C94680050
:100090000C9468000C9468000C9468000C94680040
:1000A0000C9468000C9468000C94680011241FBE26
:1000B000CFEFDAE0DEBFCDBF21E0A0E0B1E001C0CC
:1000C0001D92A730B207E1F70E94E7000C94B5013A
:1000D0000C940000E4E6F0E080818B7F80838CB597
:1000E00080688CBD8CB58F7D8CBD8CB580618CBDDE
:1000F0008CB5837F8CBD84B1866084B98CB58C7FD0
:100100008CBD8DB581608DBD8CB580648CBD08952E
:1001100070E002C0660F771F4A95E2F76EBD0DB41E
:1001200007FEFDCF813041F41E9A982F9A95F1F782
:100130001E9A809303010895823049F41D9A81E04C
:10014000982F9A95F1F71D9A8093020108958330B4
:1001500049F41C9A81E0982F9A95F1F71C9A8093A4
:1001600001010895843041F41F9A81E0982F9A95F7
:10017000F1F71F9A809300010895E5E6F0E0908181
:100180009E7F9083EAECF0E090819F739083908152
:100190009F7C90839081977F9083908196609083DD
:1001A000A9ECB0E09C919B7F9C9390819E7F908373
:1001B00090E09093CD008093CC008C9180688C93DC
:1001C0008C9188608C938C9180618C930895F894C5
:1001D0000E946A0087E60E94BD007894269A259ABC
:1001E000249A279A6E9A3F9A3E9A579A209A20E02C
:1001F00031E0189A80910301813079F42093030152
:10020000669A4FEF80E792E0415080409040E1F7DE
:1002100000C00000669A932F01C0922F80910201C6
:10022000813071F420930201379A4FEF80E792E01A
:10023000415080409040E1F700C00000379A932F72
:1002400080910101813091F420930101369A4FEFA2
:1002500080E792E0415080409040E1F700C000000C
:10026000369A809100018130A9F404C08091000188
:10027000813071F4209300014F9A4FEF80E792E0B4
:10028000415080409040E1F700C000004F9A02C00A
:10029000992351F04FEF82E69EE24150804090401A
:1002A000E1F700C00000A5CF4FEF83ED90E3415090
:1002B00080409040E1F700C000009BCF1F920F925A
:1002C0000FB60F9211242F933F934F935F936F9329
:1002D0007F938F939F93AF93BF93EF93FF938091FF
:1002E00006018F5F80930601813059F48091CE0022
:1002F0008F3F21F481E08093050126C01092060112
:1003000023C0909105019923F9F0823049F480913E
:10031000CE008530C9F0109206011092050114C07C
:10032000833029F48091CE00809304010DC0843085
:1003300059F46091CE0042E0809104010E9488004F
:100340001092060110920501FF91EF91BF91AF91BC
:100350009F918F917F916F915F914F913F912F91DD
:0E0360000F900FBE0F901F901895F894FFCFCE
:00000001FF
