S01400006D656761333275345F4450532E7372656322
S11300000C9456000C946B000C946B000C946B00D5
S11300100C946B000C946B000C946B000C946B00B0
S11300200C946B000C946B000C946B000C946B00A0
S11300300C946B000C946B000C946B000C946B0090
S11300400C946B000C946B000C946B000C946B0080
S11300500C946B000C946B000C946B000C946B0070
S11300600C94D8000C946B000C946B000C946B00F3
S11300700C946B000C946B000C946B000C946B0050
S11300800C946B000C946B000C946B000C946B0040
S11300900C946B000C946B000C946B000C946B0030
S11300A00C946B000C946B000C946B0011241FBE19
S11300B0CFEFDAE0DEBFCDBF11E0A0E0B1E0E2E0D7
S11300C0F2E002C005900D92A230B107D9F70E9468
S11300D0B5000C94FF000C940000E4E6F0E080818D
S11300E08B7F80838CB580688CBD8CB58F7D8CBDF7
S11300F08CB580618CBD8CB5837F8CBD84B18660EA
S113010084B98CB58C7F8CBD8DB581608DBD8CB56B
S113011080648CBD089590E002C0880F991F6A9591
S1130120E2F78EBD0DB407FEFDCF413031F41E9AC7
S113013081E08A95F1F71E9A0895423031F41D9AB0
S113014081E08A95F1F71D9A0895433031F41C9AA1
S113015081E08A95F1F71C9A0895443029F41F9A96
S113016081E08A95F1F71F9A0895CF93DF9300D029
S1130170CDB7DEB782E08A8384E08983F8940E9455
S11301806D007894269A259A249A279A209A498170
S11301906A81809100010E948B00189A2FEF83EDF1
S11301A090E3215080409040E1F700C00000EFCF81
S11301B01F920F920FB60F9211242F938F939F9338
S11301C08EB580930001189A2FEF81EE94E02150B0
S11301D080409040E1F700C00000189A2FEF81EEB4
S11301E094E0215080409040E1F700C000009F91CE
S11301F08F912F910F900FBE0F901F901895F89428
S1050200FFCF2A
S1050202F10005
S9030000FC
