:100000000C9456000C946B000C946B000C946B00D9
:100010000C946B000C946B000C946B000C946B00B4
:100020000C946B000C946B000C946B000C946B00A4
:100030000C946B000C946B000C946B000C946B0094
:100040000C946B000C946B000C946B000C946B0084
:100050000C946B000C946B000C946B000C946B0074
:100060000C94B6000C946B000C946B000C946B0019
:100070000C946B000C946B000C946B000C946B0054
:100080000C946B000C946B000C946B000C946B0044
:100090000C946B000C946B000C946B000C946B0034
:1000A0000C946B000C946B000C946B0011241FBE1D
:1000B000CFEFDAE0DEBFCDBF11E0A0E0B1E0EEEBC4
:1000C000F1E002C005900D92A230B107D9F70E946D
:1000D0009C000C94DD000C940000E4E6F0E08081CC
:1000E0008B7F80838CB580688CBD8CB58F7D8CBDFB
:1000F0008CB580618CBD8CB5837F8CBD84B18660EE
:1001000084B98CB58C7F8CBD8DB581608DBD8CB56F
:1001100080648CBD089590E002C0880F991F6A9595
:10012000E2F78EBD0DB407FEFDCF1C9A85E08A95DF
:10013000F1F700001C9A0895CF93DF931F92CDB77B
:10014000DEB782E089830E946D00209A69818091E8
:1001500000010E948B00189A2FEF83ED90E321504D
:1001600080409040E1F700C00000F0CF1F920F9256
:100170000FB60F9211242F938F939F938EB5809378
:100180000001189A2FEF81EE94E0215080409040BA
:10019000E1F700C00000189A2FEF81EE94E02150A3
:1001A00080409040E1F700C000009F918F912F9117
:0E01B0000F900FBE0F901F901895F894FFCF80
:0201BE00F1004E
:00000001FF
